{
  "contractName": "KycBlockChain",
  "abi": [
    {
      "constant": false,
      "inputs": [
        {
          "internalType": "string",
          "name": "_name",
          "type": "string"
        },
        {
          "internalType": "string",
          "name": "_hash",
          "type": "string"
        },
        {
          "internalType": "address",
          "name": "_bank",
          "type": "address"
        }
      ],
      "name": "newCustomer",
      "outputs": [
        {
          "internalType": "bool",
          "name": "",
          "type": "bool"
        }
      ],
      "payable": true,
      "stateMutability": "payable",
      "type": "function"
    },
    {
      "constant": false,
      "inputs": [
        {
          "internalType": "string",
          "name": "_name",
          "type": "string"
        }
      ],
      "name": "newOrganisation",
      "outputs": [
        {
          "internalType": "bool",
          "name": "",
          "type": "bool"
        }
      ],
      "payable": true,
      "stateMutability": "payable",
      "type": "function"
    },
    {
      "constant": true,
      "inputs": [
        {
          "internalType": "address",
          "name": "_address",
          "type": "address"
        }
      ],
      "name": "viewCustomerData",
      "outputs": [
        {
          "internalType": "string",
          "name": "",
          "type": "string"
        }
      ],
      "payable": false,
      "stateMutability": "view",
      "type": "function"
    }
  ],
  "bytecode": "0x608060405234801561001057600080fd5b50610c70806100206000396000f3fe6080604052600436106100335760003560e01c80626994291461003857806305c5bf4c14610102578063b8d7ec2d146101d5575b600080fd5b34801561004457600080fd5b506100876004803603602081101561005b57600080fd5b81019080803573ffffffffffffffffffffffffffffffffffffffff16906020019092919050505061035f565b6040518080602001828103825283818151815260200191508051906020019080838360005b838110156100c75780820151818401526020810190506100ac565b50505050905090810190601f1680156100f45780820380516001836020036101000a031916815260200191505b509250505060405180910390f35b6101bb6004803603602081101561011857600080fd5b810190808035906020019064010000000081111561013557600080fd5b82018360208201111561014757600080fd5b8035906020019184600183028401116401000000008311171561016957600080fd5b91908080601f016020809104026020016040519081016040528093929190818152602001838380828437600081840152601f19601f82011690508083019250505050505050919291929050505061054e565b604051808215151515815260200191505060405180910390f35b610345600480360360608110156101eb57600080fd5b810190808035906020019064010000000081111561020857600080fd5b82018360208201111561021a57600080fd5b8035906020019184600183028401116401000000008311171561023c57600080fd5b91908080601f016020809104026020016040519081016040528093929190818152602001838380828437600081840152601f19601f8201169050808301925050505050505091929192908035906020019064010000000081111561029f57600080fd5b8201836020820111156102b157600080fd5b803590602001918460018302840111640100000000831117156102d357600080fd5b91908080601f016020809104026020016040519081016040528093929190818152602001838380828437600081840152601f19601f820116905080830192505050505050509192919290803573ffffffffffffffffffffffffffffffffffffffff1690602001909291905050506106cb565b604051808215151515815260200191505060405180910390f35b6060610369610a95565b6103db576040517f08c379a000000000000000000000000000000000000000000000000000000000815260040180806020018281038252600d8152602001807f4163636573732044656e6965640000000000000000000000000000000000000081525060200191505060405180910390fd5b6000808373ffffffffffffffffffffffffffffffffffffffff1673ffffffffffffffffffffffffffffffffffffffff16815260200190815260200160002060040160009054906101000a900460ff1615610510576000808373ffffffffffffffffffffffffffffffffffffffff1673ffffffffffffffffffffffffffffffffffffffff1681526020019081526020016000206001018054600181600116156101000203166002900480601f0160208091040260200160405190810160405280929190818152602001828054600181600116156101000203166002900480156105045780601f106104d957610100808354040283529160200191610504565b820191906000526020600020905b8154815290600101906020018083116104e757829003601f168201915b50505050509050610549565b6040518060400160405280602081526020017f4e6f207375636820437573746f6d657220696e2074686520646174616261736581525090505b919050565b6000610558610a95565b156105ae576040517f08c379a0000000000000000000000000000000000000000000000000000000008152600401808060200182810382526032815260200180610c0a6032913960400191505060405180910390fd5b81600160003373ffffffffffffffffffffffffffffffffffffffff1673ffffffffffffffffffffffffffffffffffffffff1681526020019081526020016000206000019080519060200190610604929190610b64565b5060018060003373ffffffffffffffffffffffffffffffffffffffff1673ffffffffffffffffffffffffffffffffffffffff16815260200190815260200160002060010160006101000a81548160ff02191690831515021790555060018060003373ffffffffffffffffffffffffffffffffffffffff1673ffffffffffffffffffffffffffffffffffffffff16815260200190815260200160002060010160016101000a81548160ff021916908360018111156106bd57fe5b021790555060019050919050565b60006106d5610afd565b15610748576040517f08c379a00000000000000000000000000000000000000000000000000000000081526004018080602001828103825260188152602001807f437573746f6d657220416c72656164792045786973747321000000000000000081525060200191505060405180910390fd5b600160008373ffffffffffffffffffffffffffffffffffffffff1673ffffffffffffffffffffffffffffffffffffffff16815260200190815260200160002060010160009054906101000a900460ff1661080a576040517f08c379a000000000000000000000000000000000000000000000000000000000815260040180806020018281038252600d8152602001807f4e6f20737563682042616e6b210000000000000000000000000000000000000081525060200191505060405180910390fd5b836000803373ffffffffffffffffffffffffffffffffffffffff1673ffffffffffffffffffffffffffffffffffffffff168152602001908152602001600020600001908051906020019061085f929190610b64565b50826000803373ffffffffffffffffffffffffffffffffffffffff1673ffffffffffffffffffffffffffffffffffffffff16815260200190815260200160002060010190805190602001906108b5929190610b64565b50816000803373ffffffffffffffffffffffffffffffffffffffff1673ffffffffffffffffffffffffffffffffffffffff16815260200190815260200160002060020160006101000a81548173ffffffffffffffffffffffffffffffffffffffff021916908373ffffffffffffffffffffffffffffffffffffffff16021790555060016000803373ffffffffffffffffffffffffffffffffffffffff1673ffffffffffffffffffffffffffffffffffffffff16815260200190815260200160002060030160003373ffffffffffffffffffffffffffffffffffffffff1673ffffffffffffffffffffffffffffffffffffffff16815260200190815260200160002060006101000a81548160ff02191690831515021790555060016000803373ffffffffffffffffffffffffffffffffffffffff1673ffffffffffffffffffffffffffffffffffffffff16815260200190815260200160002060040160006101000a81548160ff02191690831515021790555060008060003373ffffffffffffffffffffffffffffffffffffffff1673ffffffffffffffffffffffffffffffffffffffff16815260200190815260200160002060040160016101000a81548160ff02191690836001811115610a8557fe5b0217905550600190509392505050565b6000600160003373ffffffffffffffffffffffffffffffffffffffff1673ffffffffffffffffffffffffffffffffffffffff16815260200190815260200160002060010160009054906101000a900460ff1615610af55760019050610afa565b600090505b90565b60008060003373ffffffffffffffffffffffffffffffffffffffff1673ffffffffffffffffffffffffffffffffffffffff16815260200190815260200160002060040160009054906101000a900460ff1615610b5c5760019050610b61565b600090505b90565b828054600181600116156101000203166002900490600052602060002090601f016020900481019282601f10610ba557805160ff1916838001178555610bd3565b82800160010185558215610bd3579182015b82811115610bd2578251825591602001919060010190610bb7565b5b509050610be09190610be4565b5090565b610c0691905b80821115610c02576000816000905550600101610bea565b5090565b9056fe4f7267616e69736174696f6e20616c7265616479206578697374732077697468207468652073616d65206164647265737321a265627a7a72315820994adba7d22e1fe270885ed7faef82d512bdec016489b3978355116dcbf6091b64736f6c63430005100032",
  "source": "pragma solidity >=0.4.21 <0.7.0;\n\ncontract KycBlockChain{\n\n    enum Entity { Customer, Organisation } \n\n    struct Customer{\n        string c_name;\n        string data_hash;\n        address bank_address;\n        mapping(address => bool) access;\n        bool exists;\n        Entity entity;\n    }\n\n    struct Organisation{\n        string b_name;\n        bool exists;\n        Entity entity;\n    }\n\n    mapping(address => Customer) allCustomers;\n    mapping(address => Organisation) allOrganisations;\n\n    function isOrg() internal view returns(bool){\n        if(allOrganisations[msg.sender].exists){\n            return true;\n        }\n        return false;\n    }\n\n    function isCus() internal view returns(bool){\n        if(allCustomers[msg.sender].exists){\n            return true;\n        }\n        return false;\n    }\n    \n    \n    \n    function newCustomer(string memory _name, string memory _hash, address _bank) public payable returns(bool){\n        require(!isCus(),\"Customer Already Exists!\");\n        require(allOrganisations[_bank].exists,\"No such Bank!\");\n        allCustomers[msg.sender].c_name = _name;\n        allCustomers[msg.sender].data_hash = _hash;\n        allCustomers[msg.sender].bank_address = _bank;\n        allCustomers[msg.sender].access[msg.sender] = true;\n        allCustomers[msg.sender].exists = true;\n        allCustomers[msg.sender].entity = Entity.Customer;\n        return true;\n\n    }\n\n    function newOrganisation(string memory _name) public payable returns(bool){\n        require(!isOrg(),\"Organisation already exists with the same address!\");\n        allOrganisations[msg.sender].b_name = _name;\n        allOrganisations[msg.sender].exists = true;\n        allOrganisations[msg.sender].entity = Entity.Organisation;\n        return true;\n    }\n\n    function viewCustomerData(address _address) public view returns(string memory){\n        require(isOrg(),\"Access Denied\");\n        if(allCustomers[_address].exists){\n            return allCustomers[_address].data_hash;\n        }\n        return \"No such Customer in the database\";\n    }\n    \n}",
  "sourcePath": "/Volumes/External HDD/CodeData/BlockChain/KYC/contracts/KycBlockChain.sol",
  "compiler": {
    "name": "solc",
    "version": "0.5.16+commit.9c3226ce.Emscripten.clang"
  },
  "schemaVersion": "3.3.2",
  "updatedAt": "2020-11-30T11:49:10.520Z",
  "networkType": "ethereum",
  "devdoc": {
    "methods": {}
  },
  "userdoc": {
    "methods": {}
  }
}